:1000000000180020E1C8000011BC000013BC000073
:1000100000000000000000000000000000000000E0
:1000200000000000000000000000000015BC0000FF
:10003000000000000000000017BC000019BC000018
:100040001DBC00001FBC000021BC000023BC000040
:100050001BBC000025BC000027BC000029BC000020
:100060002BBC00002DBC00004DAD000031BC0000D9
:100070002DC6000035BC000005AC000039BC0000F6
:100080003BBC0000B1AF000029CD00000DCD000049
:1000900043BC000045BC0000B5BA000049BC0000EC
:1000A0001BBC00004BBC00004DBC00001BBC000092
:1000B0004FBC00001BBC000051BC000001C100008F
:1000C00030B581B00CF012FD00282ED0C24A9078D5
:1000D00001461C3905292ED9022800D1AAE007289B
:1000E00000D10DE1082800D118E13A2800D15EE1E5
:1000F000142841D10024BD4D0A2C1AD0E01CC0B2F6
:10010000694601220BF08CFF00280CD00099062CC8
:1001100006D1082902D88800295800E00021009162
:10012000E0B20BF0D7FD641CE6E7AA480168491C61
:10013000016001B030BDC0467944097949008F445F
:1001400003224B1B1B02F4E704206D4601242946C1
:1001500022460BF065FF0720294622460BF060FF80
:100160000028E6D0AC209F49009A0A50E0029E4940
:100170004A6802434A60DCE7911C5278521ED2B2B0
:1001800008F0C4FAD5E704206D460124294622462A
:100190000BF046FF0720294622460BF041FF0028BE
:1001A00007D080208F49009A0A508F484168214328
:1001B00041600820694601220BF032FF0028B8D0C8
:1001C0000A20009941439820864A11508648416888
:1001D00040220A434260ACE70320694602220BF04A
:1001E0001FFF002808D07F48009941650120400585
:1001F0007D490A6802430A600520694602220BF025
:100200000FFF002808D077480099016501200005FC
:1002100075490A6802430A600720694602220BF00A
:10022000FFFE002800D184E76E4800998165012017
:100230008005B7E00320694604220BF0F1FE002898
:100240000BD0009864210DF03AFA8421654A505091
:100250006548416802220A43426007206946042437
:1002600022460BF0DDFE00280AD0009864210DF034
:1002700026FA88215B4A50505B484168214341601F
:100280000B20694602220BF0CBFE002808D055480F
:10029000009901660120000653490A6802430A607A
:1002A0000D20694602220BF0BBFE002808D04D4805
:1002B00000994163012040034B490A6802430A60E8
:1002C0000F20694602220BF0ABFE00280AD04848F6
:1002D000009908188C21434A50504348416808222D
:1002E0000A43426011206946012422460BF098FE21
:1002F000002800D11DE73B4800990164200451E02B
:100300000320694602220BF08BFE002800D110E783
:1003100034480099C1650120C00543E003206946C7
:1003200002220BF07DFE002809D00A2000994143EB
:100330002C4841612C48016820220A4302600520B4
:10034000694602220BF06CFE00280AD00A200099B0
:100350004143244881620120800223490A68024304
:100360000A600720694603220BF05AFE00280AD0D3
:100370000A20009941431B480163012000031A49E8
:100380000A6802430A600A246946012520462A4673
:100390000BF046FE002800D1CBE6009844431148FC
:1003A000C462E80210490A6802430A60C1E6D078D4
:1003B000EA2800D0BDE65079102800D0B9E6062022
:1003C000064904220BF02CFE0A20054904220BF0FA
:1003D00027FEAEE6F4030020340D002008040020C0
:1003E0000C040020B801002000F8FF1F28CA0000FC
:0403F00018FCFFFFF7
:0C03F4000148802101607047C40000F83F
:10040000FFFFFFFFFFFFFFFFFFFFFFFFFEFFFFFFFD
:10041000F0B595B01D4902260E701D4C07222146ED
:10042000059209F0B1F801461A4F3878401EC2B261
:100430002046129104F004FD174D2878411ECAB2DF
:100440000D2A0AD8154BD340DA0706D048B28000EF
:10045000134908580BF0C2FE28780D2801D900F086
:10046000CEFE217813914000784480884000874474
:100470001900C6062700F7003A01C606C6064C0159
:100480004D00C606C606C606E900DF027B0F002047
:10049000480F0020670F00200B0F002031270000BD
:1004A00070C10000FE480DF05AFC0E203870139801
:1004B000401CC2B2FB4807210CF0EAFF00F09FFE8F
:1004C000F9480DF04CFC06203870F84804780820F4
:1004D000F7490DF04CFC139F7B427B41F54EB07DFC
:1004E0004209F549082009F07FFC4001B17D1F2237
:1004F0000A401018B075F07D012F00D0CDE240B257
:1005000024210CF0DFFCF0752346C7E2EB480DF028
:1005100026FC10203870EA4800781190139840B2F9
:100520000CF0CAF90D900022072A01D100F067FEF5
:100530000D988118481CC0B214904000C9B2139E97
:100540001291B14202D10221F74B1970D9494018DA
:100550001499102901D8F54900E0F5494018109088
:100560000E92D00008300F900025032D67D211990C
:10057000A94201D0002101E0CC490978129AB24287
:1005800000D00021CFB2791E384688411499102935
:1005900053D8012D0F99CEB220D0002D31463AD13B
:1005A000470000242046149A23460DF0D0FB1098F3
:1005B00000788009022800D901243046F4492246F7
:1005C0003B4609F011FC3F21002800D0C843139E90
:1005D000109B1A780A4002431A702EE01098007897
:1005E00080068216452031463B4609F0A5FF002FC4
:1005F000139E22D0109C20781521C94380068016B6
:1006000016220CF0E7FC3F2101402078C022024076
:100610005018207011E001241098025778203B46B2
:100620000DF03EFA002F139E07D0109F38577C2103
:10063000C9437D220CF0CEFC78706D1C95E70E9AB4
:10064000521C71E7DE480DF08AFB0A2038701398BF
:10065000042800D930E20CF053FC002414942EE25C
:10066000D8480DF07CFB11203870AF480321017091
:10067000AC4800780F90139D68B20CF01DF90490FF
:100680000F2D00D903E36800CF4C205AC10B40184E
:1006900000B24010CD4942184E2000210DF019FC47
:1006A000CB480078802800D0FFE20F98002800D0C7
:1006B000FBE2052068437F49081857218900425C06
:1006C0000499691A4900615A002A00D04942FF2260
:1006D0005E328154090A8018417002200BF094FEAA
:1006E0000CF09AF8E1E2BB480DF039FB05203870B8
:1006F000B94800240470B94E35781398002801D108
:1007000000F0ADFC234600F0B3FCB5480DF027FB2C
:100710000C203870844803210B91017081480478C3
:10072000139840B20CF0C8F80A9000261094072ED7
:1007300001D100F064FD5D4800781490F0000830AD
:10074000C5B200274C22384629460DF0A9FB0A986D
:100750008019C4B2082C0F9601D8312100E038214D
:100760000818C2B2052029460DF09AFB0B98604389
:10077000504909189B48119108180E9083781398D6
:100780008442149E00D03E46109C002C304600D07F
:100790003846C0B200900F20129003400D20294629
:1007A000914A0DF023FA022C314600D000210D9120
:1007B000012C149634460E9E00D00024B078129975
:1007C00008400CF0F7FB02280C9017D00128E7B284
:1007D00024D0002834D1305625284ADB8349119A89
:1007E00051560D9AD2B20092822201922538FE22F1
:1007F00002407D31382A65D00B4665E07B4811996F
:100800000A5C0D98C3B25020294609F08FFC32785B
:10081000E3B23620294609F089FC0FE00020325669
:10082000362029463B4609F087FE704811990A5642
:100830000D98C3B24D20294609F07EFE109C4FE072
:10084000002030566A4900912027002800D53C43FB
:10085000E3B2C109414048B2401C82B24920294656
:100860000DF03FFA61481199085600280D990BD4F4
:100870000BE05E4811990A560D98C3B263202946D1
:100880000DF00EF9109C25E03943109CCBB2C10944
:10089000414048B2421C6B2029460DF001F91FE08F
:1008A00064ED000038C1000083F70000770F0020DE
:1008B00077EB00004A08002081F30000BDF500003E
:1008C0002E0F00200A234B43109C42B2642029467D
:1008D00006F07CFD3278362029463B4609F026FC9E
:1008E0001498B71C032C00D0002039780A09082A74
:1008F00000D9521CC3B26820294609F01DFE3D48AC
:100900000078002800D190E01498000600D18CE017
:10091000032C00D989E002A10C5D6400A744C04605
:100920000A212E3E2E0F00205D0F00207B020000CA
:10093000E10200003878129D28400E210CF0C2FA26
:1009400028403978F0220A40111839700CF032FB37
:100950000C99814269D000202449119A505430707A
:1009600063E00C98032860D87844007940008744FD
:1009700001210143002170565E2242E00C980328B9
:1009800053D8C0467844007940008744033E42452E
:10099000ADF500007C21C9437D2240E03878000994
:1009A000129D29460CF08EFA39782940000108186A
:1009B00038703AE0002030561521C943162220E055
:1009C00097F900005FF9000074070020DC050000C3
:1009D0006A0F0020E1F800006D0F0020680F002072
:1009E0002BF500005602000062E9000057020000EB
:1009F00023FA00001E0F0020002030563121C94389
:100A000063220CF0E7FA30700FE01521C94316227B
:100A100005E000215E2202E03121C9436322F04D4E
:100A2000119E70570CF0D6FA70550F9E761C7EE61C
:100A3000EC480578EC480DF092F9139E0A2E1495B7
:100A400000D98DE20CF05CFA10203870052E00D928
:100A5000D7E3002E02D1E5480921017071427141AE
:100A6000E3480078009108213446E24E0A273246D6
:100A70003B4608F097FE012C01D000F038FC12989C
:100A8000602802D1B07A0DF0E1F9F05731210CF075
:100A900019FAB0722B4600F02CFC0023C2B266207B
:100AA000102109F043FB307E022F51D140B2642166
:100AB0000CF008FA30764CE0052014900124C94867
:100AC00007780825CC4928460DF051F912943134A5
:100AD0001E201095082122460DF0E2F91398149972
:100AE000814211973B4600D00023052012994843CC
:100AF000C24A115C14180120129020560093000283
:100B00004218472008210CF018FC1398149D8542C8
:100B100012D1BB483C2202703B20C14300200CF0A4
:100B200059FA2178627812025118081800B2C117D8
:100B300088432070000A6070681C139988423BD17A
:100B40000220205613210CF0BDF9A070012234E0E0
:100B50000024C2B25420182123460BF0F7FFF81EE0
:100B600042424241B07D4007C00F2021A54CA04722
:100B7000C007400FB17DFB220A401018B075381F26
:100B8000424242410807C00F2821A047C007000F7A
:100B9000B17DF7220A401018B075781F42424241D9
:100BA000C806C00F3021A047C007C00EB17DEF229C
:100BB0000A401018B07522E3002213980528129BF2
:100BC00000D381233C20102109F02CF8032728466C
:100BD0003043002213998842119B00D01346109293
:100BE000E257002B304600D038460F9700905A202D
:100BF00018210CF0C2FDE070139D149F781BC01CDF
:100C000043424341227920207F4909F0EDF82071C9
:100C1000381DA842119B109900D00B46002B0F984D
:100C200000D00646734C052D01D3784800E0784883
:100C300025186A5600964F2028210CF09EFD6F4F14
:100C40007A7974496254FA78734BE254FA79734BA7
:100C5000E2543A7A724BE254724AA35C7F261E40F9
:100C60007B7ADB01F318A35428707878A073387866
:100C700060736018B9794170B878E0723879129968
:100C80000840217BFE220A4010182073B7E2102D85
:100C90000BD165480078802807D16448192101707C
:100CA00080200CF025F807F0E3FF00216048323087
:100CB00000B203900A46072900D141E104980A18BE
:100CC000D4B2C8000A900830102C00D139E1069146
:100CD0006100584B595A0C91052111946143454BC1
:100CE0005B18AD21490059180E918E78FF210D91A6
:100CF0005E315C5C1493591810914D78C1B2079223
:100D0000501CC2B20027384612913B460DF01FF826
:100D100028020019002E00D140420C9943187F2070
:100D20007E22002E00D010461BB2039CA34200DBA3
:100D30002D20002E00D07F22322B139D00DC024696
:100D40004B2012990DF0ACF82A48817D0220084012
:100D500001D07D2100E0642109917C2100280C91C3
:100D600001D0C84301E06320C043089005980A9968
:100D700001430A910D995C31149840180D900E981A
:100D8000801C0B90042F00D3D6E00F987840119967
:100D90006940014301D0002201E012480278D5B237
:100DA00068426841244909784E424E41064302D1C7
:100DB0000020224908702B2000010E49085C002405
:100DC0000028149240D00121109A5156090212783D
:100DD0008A1891B2002937D0824231DD044633E0CF
:100DE00057020000770F002001F900005D0F00207E
:100DF0002E0F00204A080020DFEF0000E00E002048
:100E00006E0F0020C1CD000069F3000072030000E6
:100E100071030000AB0200007B020000AD02000085
:100E2000AE020000730300006A0F00201A0F0020BA
:100E30009CFF0000740700201E0F00206D0F002093
:100E40004442A24200DB0C4620B20A210CF037FCDF
:100E5000022F23D0012F47D0002F61D101241099F8
:100E60000857000209784218202014990143CBB298
:100E70002D2012990CF014FE002E139D5AD1109EB5
:100E800030570002317840187D21CA000223F24910
:100E900006F0F4FC3070000A70704BE00D99097890
:100EA000643149B2401802B27D2A00DB7D226620FF
:100EB00012992B460CF0F4FD200406D00A98C1B21A
:100EC0003220382209230BF057FF002E139D31D119
:100ED0000D9C20781821C943643040B2099A0CF067
:100EE00079F86438207025E00E99097864394CB29D
:100EF000001902B20C98C043824200DC024648202E
:100F000012992B460CF0CCFD002E139D12D1192204
:100F1000204608990CF05EF864300E99087009E0DC
:100F20000B9C207812992A460BF04AFF411E8841FB
:100F30002070139D7F1C25E70699491C079ABAE685
:100F40003820D1B210290AD14D40C449097829432B
:100F50004B424B41C1B21220C14A0CF061FC4EE140
:100F60001020119038700820BE490CF000FF304668
:100F70000B38434243413446BB4EB27CBB49082048
:100F800008F032FFB07400250C2C00D01495149B8F
:100F9000581E19468141142032560091662011993D
:100FA0000CF0EBFB307520460D3842424241707C1C
:100FB0000007C00F18210CF09EFEC007000F717CC7
:100FC000F7220A401018707420460E3842424241FF
:100FD000307B8007C00F20210CF08DFEC007800FF2
:100FE000317BFD220A4010183073FF20400014901E
:100FF00001242F46072F00D101E1737D2340581EA5
:1010000083419B48C25D28463F30C0B2282107F08B
:1010100065FA13980F281CD1062096490870964847
:101020000078874215D128463E30C0B227210822D9
:1010300009230BF0A1FE12982E2801D0202808D1F8
:10104000707D6040707502200BF0DEF90020F949D8
:101050000870640014980440ED1D7F1CCAE768B254
:10106000032200210B460CF02AFF054630700123B5
:10107000681CC2B208262046314609F057F8EDB286
:1010800028460BF02DF9034600942A20EC4A3146FD
:1010900014930CF0ABFDEB490E9608200CF067FEA4
:1010A0006800E9490E5E28460BF07EFE012300949D
:1010B0000193652E194600DB214663220D92D2432F
:1010C00096421E4600DB4E001193002800D02646B3
:1010D000701E129086411398401E47424741304689
:1010E000384018210F91D94D0A46149BA847009407
:1010F00001941299481E814112910F4030211091A4
:1011000038460F9A149BA847119D00950195139896
:10111000801E474247413E4028220C9230460F999C
:10112000149BCA4EB0470095019412980740384668
:10113000109D29460C9A149BB04700940194139E6D
:10114000F11E484248411E212A460D9BBF4DA8472B
:1011500000940194311F48424841382262231E21E5
:10116000A847B64E30780BF01FFE5C2500282846B5
:1011700000D03C204022214609F020F9B4481199C2
:1011800001705C2008F0FEFC30784100AE4A555EEC
:101190001927394669430A0E8E18294608F04EFA77
:1011A00014903212722010990CF093FE149E774323
:1011B000380E3818021254200E990CF08AFE68017D
:1011C000FF214900891C4018820D8018870A384683
:1011D0005C30C0B2720151188A0D89188E0A1D2127
:1011E000891BC9B2072209F0E9F85937F8B2202162
:1011F000891BC9B207220CF04EFE9548047015B049
:10120000F0BD082095490CF0B2FDB01F42424241AA
:10121000894DA87D8007C00F08210CF06CFDC00728
:10122000810FAA7DFD2313405918A975002825D1E7
:10123000AD2040002818D5214900691888421DD2E8
:1012400000214256002A00D5017001228256012A4F
:1012500000DB4170401DEEE718FCFFFF1A0F002075
:101260001AF5000036EE00004A08002090F1000058
:1012700049F900005D0F00202E0F0020F01F4342AF
:101280004341744FE85D8006C40F10207449224624
:1012900008F0AAFDC107890EEA5D20239A43511880
:1012A000E955324601263040A04204D014460AF0E7
:1012B00067FA2246E95D1046083842424241480634
:1012C000C40F182120460CF016FDC107490EEA5D37
:1012D000BF2313405918E9553040A04201D00AF00D
:1012E0004FFA0BF0B1FC002865D0812264E0B07A9F
:1012F00000235C49009141218900C0B24218582066
:1013000010210CF0EEFC182057490CF030FDFF20A6
:10131000470001240025082D13D05448305C20409C
:10132000411E8841009052484219062068434230CD
:10133000C0B2182101230CF0FCFA64003C406D1C83
:10134000E9E71398022816D14120172138220923F2
:101350000BF012FD1298602801D02E280BD10BF053
:10136000C7FC0CF07BFB414970543B4800210170E5
:1013700002200BF049F8139FF81E42424241354CBF
:10138000305DC006C00F202529460CF0B4FCC00714
:10139000C00E315DEF220A40101830552B20042F6B
:1013A0002ED10401305764210BF08CFD30552021E3
:1013B000149D0D4326E08022602020210CF070FD5A
:1013C000139C2046093842424241687C3040282123
:1013D0000CF091FC3040697CFE220A4010186874C1
:1013E0000A3C62426241C806C00F30210CF083FC07
:1013F000C007C00E697CEF220A4010186874FEE630
:101400000001305CC2B2782028212B460CF048FB4A
:10141000781F434243419F208400305D42093020C1
:10142000144908F0E1FC4001315D1F220A40101808
:101430003055E4E61F0F00204A080020680F002006
:1014400077F7000033F20000FC070020419A00000B
:10145000240F0020730300001F0F00200CEC00007D
:10146000DDF500003CF5000001EE0000AF020000D9
:0814700005F80000E7F200009E
:10147800F0B58BB01A4901260E701A490978C907C8
:1014880001D0042200E00322174C214608F078F826
:101498000746164D2878401EC2B22046394603F04A
:1014A800CBFCF94800780B2801D900F0FDFD019725
:1014B8000296F6490E7827780A9706964000C046A5
:1014C8007844808840008744130024005500A60013
:1014D800B700230178019F0181028902A702EA026D
:1014E8007B0F00206B0F0020540F0020670F002097
:1014F800EB480CF030FCE348007801220240D11C94
:101508000A322A70781CC2B2E6480BF0BDFF00F020
:10151800CBFDE5480CF01FFC062028702E25E3487B
:10152800425DE3480090002F344600D00024762026
:10153800082123460CF0D1FB002CDC4E07D0705755
:101548000A212D220BF042FD70550BF037FD1020BB
:10155800D8490CF008FC3125705D0024012F00D01B
:101568000AE340B21521C94316220BF02FFD70552E
:10157800069B02E3D0480CF0EEFB062028700820FA
:10158800CE490CF0F0FB39465C27C84DE85DC41D18
:101598004026002906D10698064360B207210BF0C1
:1015A8008DFC0446E2B26620082133460CF074FA3A
:1015B800E01FE8550A9E701E434243414324285DBC
:1015C8008006420F1020BE4908F00AFC4007800E32
:1015D800295DC7220A4010182855B01E43424341CE
:1015E8004F242A5D042A00D304221820B54908F0A4
:1015F800F7FB0328069F00D907202855032E00D0A3
:101608001BE34D242857012164220BF0DFFC2855E9
:1016180040233B4314E3AC480CF09DFB06202870A4
:101628000820AA490CF09FFB002F00D1E5E32F20EA
:101638009E49085C4023EAE3A5480CF08CFB062091
:101648002870002F02D1A3480921017079427941FD
:10165800A14800780091954C2246513208210A236E
:1016680008F09CF8781E434243414625605D4007D8
:10167800C00F1021994A0CF0A8FAC007400F615D0D
:10168800FB220A4010186055B81E43424341C80661
:10169800C00F1821924A0CF03CFBC007C00E615DD8
:1016A8003A46EF27394008186055D01E4242424159
:1016B8004C26A05DC006C00F20210CF021FBC007FE
:1016C800C00EA15D39400818A0550A9F381F434233
:1016D8004341605D8006C00F2821824A0CF019FB47
:1016E800C007800E615DDF220A4010186055781F20
:1016F80043424341A05DC00930217B4A0CF065FAA2
:10170800C001A15D7F220A401018A05500F0CCFC52
:1017180076480CF020FB09202870042F00D9A0E29D
:101728000BF0EAFB082072490CF01DFB7A427A4163
:101738005D275E4CE05D0126304008210CF0D7FAA9
:101748003040E15DFE22099211400818E0550A98E0
:10175800401E424242414627E55D35401021284659
:101768000CF0C5FA08963040E15D099A1140091855
:10177800E155A84201D009F0FFFF0A98022801D0DC
:101788000020069049200990205C5A490F5C0420EB
:10179800594DC6B2002E00D190E206214143543182
:1017A800C8B20321394069184A781821069B06F007
:1017B80091FE701EF9B28F08EBE750480CF0CBFA97
:1017C80001202870002525704D4C019E072D00D161
:1017D80079E1E8B20AF018FB0E21625E00B290428D
:1017E800014600DB1146E1811C22A25E904200DC2A
:1017F8001046A083042D04D34018C10F4018400898
:101808002080A41C6D1CE1E73E480CF0A4FA0620D9
:1018180028703148007807900AF01AFF800700D531
:1018280076E2082038490CF09EFA10200025042D95
:1018380000D199E20490C1B2681C0390C2B200269C
:1018480030460891334608F06DFC680017490F18B8
:101858003A370995042E00D3B3E000240A9885424C
:10186800234607D103201B4908700798B04201D1CD
:101878000223069C032E00D9A0E0B00004A108585A
:101888008746C0466B0F00200B0F0020770F002003
:10189800151900002F1900006B1900009719000096
:1018A8007AED000084C6000009F90000B40D00209C
:1018B800A5F80000E0EA00002FF7000086F000001D
:1018C8002DEF0000CBED00006DF900008EEA00005E
:1018D80001F900005D0F00202E0F0020EDF500003B
:1018E8001EF3000023F800005FF700005DF8000019
:1018F800FFEE000051F30000AFF9000023F70000ED
:10190800C6060020F9F800007DF500007878820905
:101918000898FE4908F064FA800179783F220A4065
:10192800101878704AE07878800685160D2068438C
:1019380081B2890B401882104220089923460CF086
:10194800ABF8A0073AD51E20C1431F2228460BF04A
:101958003DFB3F2101407878C02202405018787042
:101968002CE03D7800940720059005402B46103365
:1019780048200899E94A0CF035F9A0071ED503213B
:1019880028460BF09BFA05990840F82212E000203F
:101998003856C5105A2008992A46234608F0C8FD2B
:1019A800A0070BD50E20C1430F2228460BF00EFBD3
:1019B800C000072239780A4010183870761C099D33
:1019C80048E704980830039D0A9F30E7D4480CF094
:1019D800C2F91020D3490CF0C6F965E3D2480CF0DF
:1019E800BAF90025E9B2092979D2E800032900D912
:1019F8000838C4B26E1C72B22A200023214608F0AF
:101A080097FD0F35E8B208F005FB02464420214651
:101A18000CF088F93546E5E7C4480CF09CF90298C3
:101A28002870C34800250570202006430696C14F3C
:101A3800EEB2082E67D2E800C4B21820412221462F
:101A48000CF02AFA28463130C2B21E2021460CF08A
:101A580023FA30460AF0D8F902462A2021460BF02C
:101A680009FE032E04D830460BF006F9401E02E0AA
:101A7800062E28460CD8C0B24000385E19214143D2
:101A8800080E081802125A2021460CF01EFA04E02B
:101A98005A202146069A0AF057FE6D1CC8E7A64848
:101AA8000CF059F9029828707B427B414624A34DDB
:101AB800285D4006C00F0821A14A0CF02AF9C0078A
:101AC800400EBF2279E12A249E4D285D9E49087068
:101AD800202E00D1F3E1BF2E00D1FCE103E210205B
:101AE8009A490CF040F90024E0B206281DD2E10022
:101AF8003822551A08F08EFA0246E9B220200CF076
:101B080011F9641CF0E79048029901709048007838
:101B1800002800D1C8E23024884D28577E21C943C7
:101B28007F220BF053FA2855BEE254201821894A27
:101B38000CF0C6F90025EBB2032B00D9B4E2E8009B
:101B48002030C4B254202146834A09F03BFE6E007F
:101B5800B01DC0B208F05EFA02466C2021460CF0B7
:101B6800E1F8F01DC0B208F055FA02467820214687
:101B78000CF0D8F86D1CDEE7234642B26020102135
:101B880008F0D6FCB81E424242414C25705D400622
:101B9800C00F18210CF0ABF8C007400E715DBF22D2
:101BA8000A401018705520250321E7B2022F31D2C0
:101BB8003046002F01D0503000E0483004780891BA
:101BC800C8B20A99814206D160B278210BF076F941
:101BD8000446069B00E00023E6B2052272430995FD
:101BE800EDB2662029460AF0ADFF002E04D0782019
:101BF800732229460CF050F9002F504E304601D080
:101C0800503000E04830099D089904707C1C491C3C
:101C18000835CAE70A98401F424242414624305DCF
:101C28000007C00F30210CF062F8C007000F315DCB
:101C3800F7220A401018305536E24D20285C402320
:101C4800C2B2662020210BF027FF042E00D09BE0B3
:101C58004E24285705210BF031F9285540210F4310
:101C680095E0092F01D3082727700A973B480321DD
:101C78000170324C5F34082105260027042F00D15B
:101C880012E200200090CDB2FBB21E200991294635
:101C9800334A0BF0A7FFF6B20A98801B4142414134
:101CA80030480078009104232946224607F076FD43
:101CB8000999241D7F1C0831761CDFE70698002847
:101CC80005D0099D605717210BF0F8F860550025DD
:101CD8002F46042D76D01826304678432430C0B2DB
:101CE800EBB220211C4A09F06DFD5E20205CE84023
:101CF800C00707D06E432436F0B2202112220023F9
:101D08000AF0C2F97F1C6D1CE3E7C046E4F6000048
:101D18001820F1490CF027F8C6E1C0463FE800005A
:101D2800F1F80000CEEE0000E2F900000FFA000022
:101D38006D0F0020FC07002054F80000B40D0020AF
:101D480029F90000C6060020160F002013F2000033
:101D58001F0F002031F900002CEB00005D0F002060
:101D68006BF400002E0F0020042F00D0D3E04A248B
:101D7800D24D28570921C94328220BF027F92855A5
:101D88002021069B0B43CAE04E20285C4027DA49F5
:101D98000091C2B2662028213B460BF09EFF701FBF
:101DA800434243414624285D8007C00F3021D34A6F
:101DB8000BF00BFFC007800FFD22295D0A401018A9
:101DC800285571E10A98032800D0EEE0B848007859
:101DD800C00709D05E2560570F210BF06FF86055DA
:101DE800C4480078400605D423201F215C2209231B
:101DF8000AF0BEFF4420205CEFE02F24AF4D2857A7
:101E08001E2178220BF0E2F8285540233343C2B252
:101E1800662008210AF084FC4525A84C605D012F46
:101E280008D140B20921C9436E220BF0CFF86055A2
:101E3800334600E0002342B20A32702010210BF032
:101E48002BFEB81E424242414325605D01273840BF
:101E58001821A64EB04733463840615DFE220A403D
:101E6800101860550A9EF01E424242418807C00F72
:101E780020211F469847C007800F615DFD220A4058
:101E880010186055301F424242414807C00F2821B0
:101E9800B847C007400F615DFB220A401018605523
:101EA800701F43424341C8093021914A0BF031FF6A
:101EB800C001615D7F220A4010186055F4E0401CA3
:101EC8007C490855C1B203290DD117200BF000F841
:101ED80001200AF095FA77480021015518207D491C
:101EE8000BF041FFDEE0C0B20028F7D0022800D195
:101EF80093E0012800D0D5E00024734E734F072CDF
:101F080000D1BDE0AE83EF81E0B209F07DFF28800B
:101F1800AD1C641CF3E74A206849085C20236F491C
:101F2800009140B20A3082B24E20302421460BF094
:101F3800D4FE00266A4D902C13D0604880193221B7
:101F4800415C3230407800024018A95B081A400012
:101F580002B2E0B2382120230BF09EFDB61C1834E3
:101F6800E9E7052F51D101986028029C4ED12888B5
:101F78003221524C60545B4900220A703234E9889D
:101F8800A171AA8822716B88A370090AE171110AEC
:101F98006171190AE170000A6070012420460AF094
:101FA8002FFA17200AF094FF30E044250428605DDA
:101FB80013D14C490978002978D040B203210AF09E
:101FC8007DFF615DC2B202238A4207D060554C2171
:101FD800625C7F251540655400E000233130C2B2B1
:101FE8001220282106F076FA0024E0B203285BD8F4
:101FF8001825654324350AF03FFE0246E8B2282139
:10200800002308F08FF8641CEFE700240020382133
:10201800354A23460BF000FC46E0274800210170B2
:102028000D20C043254D00282CD022490A18135FE3
:102038001C26965FF71AF9174F40791A33291DD3D2
:1020480099B2B3B2D689891B0AB2920E8A1812B213
:102058009209891A2A182B27D155D673370A17746B
:10206800F31A1EB2B60E9E1936B2B6099B1B5377E9
:10207800090A16462B367170190A9177801CD2E727
:10208800134907E00AF0A8FC2B2168542B35000AF5
:1020980068700B4910200BF066FE12201821094ABF
:1020A8000BF00EFF07F0E4FE0BB0F0BD089B95E7C0
:1020B8006B0F0020C60600206D0F0020B40D002015
:1020C8007DF40000C5F4000068C50000983A0000DF
:1020D800ADF60000D6F400007BF90000D0F7000050
:1020E800DC0700201F0F00200BFA000009DD0000AC
:1020F800BBF60000300F0020E7F4000017F70000DF
:10210800F0B59DB0029002200A460C90024012924F
:10211800202008400790012003911090014014915D
:102128004420CD49085C8006000ECC49081811905F
:102138000920C043099000271BA83D463E46139737
:102148001A90C74C072F1795169600D1BBE0FCB222
:10215800204609F059FE00B21894214608F0A0FA6A
:102168000446032F384604D82009BE49C85511989B
:10217800C05DC2B25300BC48C452200F201800B240
:102188000009010601D5404200E080B20006B749C7
:1021980088420CDC002802D0B548007800E0FF2017
:1021A800012191400140C8B2139901431391032FB3
:1021B800199268D81498002815934FD1A848007B25
:1021C80080074BD5A448C01805463A3569780902F6
:1021D8008A0B02D1179D199A40E03A22805C0818B0
:1021E800000200B2C0120BF047FE00282AD0A14816
:1021F8000078002826D028784007000F964909184B
:1022080032228A5C32314978090289189A4A105A6E
:10221800401A81B2C90B401800B240086D78A90273
:1022280009B2890A414308B21F210BF044FA86001B
:102238002802800B0228159B199A07D0012806D17D
:10224800341904E0179D159B199A07E03446022AB1
:1022580000D0169E022A109D00D0179D07980028CE
:1022680003D08648C018F821445221B2104607F01E
:10227800E1F904468248007818990BF08CFD159B0B
:1022880040001A9908800798002803D07B48C01896
:10229800E021445212980028199810D0032F0ED824
:1022A80002280CD00A2C02DC0998844204DA73480C
:1022B800C018E021002242521BA80021C1521A98DE
:1022C800801C7F1C3CE7607CC0070C9F1AD06C48C0
:1022D800007802210BF05FFD04460AF0B1FC0028EB
:1022E80000D0644260B27D30E421644A515E01222C
:1022F8009202511A4143C817800D0818800A1BA979
:102308008880574C01201490800205900798002877
:1023180000D1E2E0647D1398044055480078FF211D
:1023280041400C4202D018200AF0D2FD50480470F7
:10233800524EE03605983082F0814948007E0028E8
:102348002AD0F15F49430627F25F5243551840B23D
:102358000BF09AFC0446404385421DD91498C003EB
:10236800024691B24943A942014600D80021514092
:102378000004400C02D001430A46F2E70C98305E94
:1023880060438DB229460BF096F97080F05F604388
:1023980029460BF090F9F080314CA37D202B0C9F3F
:1023A800179D00D299E000201299002902460146A3
:1023B80007D11BA9CA88F488121949887488091991
:1023C800274CE47D002C0CD0601EC0B24000152CB8
:1023D80003D32C4C0019283802E0284C2018E03090
:1023E8000088DC0600D540421C0700D552425C0735
:1023F80000D549425B09022B06D0032B2AD0042BB7
:1024080042D1831A841863E00BB2DB0B9BB25C0BDE
:102418000C1924B2E4086442A4B28DB264195D0AAE
:102428004D192DB2ED096D42ADB26419179D9B0986
:10243800C91809B2890A494289B2611893B2DB0BFB
:10244800D3181BB25B089BB284B2E418631A6418F1
:1024580011463DE0441839E0B40D00204DF5000068
:102468004A080020030F0020FC070020FFFFFF019F
:10247800390F0020230F0020DC070020B8000020BF
:10248800810F00209407002013B2DB0B9BB25C0B7A
:10249800141924B2E4086442A4B295B264195D0A1E
:1024A80055192DB2ED096D42ADB26419179D9B09FE
:1024B800D21812B2920A524292B2A2188BB2DB0B15
:1024C800CB181BB25B089BB284B2E418A31AA418F9
:1024D800F382B482401A7082EA4CEB4814301699A1
:1024E80009B200268142149800DB3046E9B24A421C
:1024F8004A410243019240200399014003911A3452
:102508003F2080020A90149881040E9103211391B0
:1025180049040D91C1041191800508901920069075
:10252800400504903546102E00D18DE3002012900E
:1025380016962078401EB0421A9500D091E2E057D6
:102548000BF087FC1790E9B2D04819914518C020C4
:10255800285C1890C035139820560022149904F06E
:10256800A3F8E178002910D062780D2A0DD3012153
:10257800152A0A4600D30022FD4B1B785E425E41B5
:1025880032420CD1484002D009E0002807D0617AD5
:102598001F200840F74A1278D040C00723D060783F
:1025A80000262E702D2809D119988000B7490818DF
:1025B800F849129A51430912016411E00121C943F3
:1025C80002460A3A8A420BD36179A279120251185B
:1025D800E279120489180D9A11400E9A914222D17B
:1025E800169E1A9DADE1189A504242411892601CFD
:1025F80010906278501EC0B20B281BD84100A34A25
:102608005118E0228F5A0126032850D86079A27900
:1026180012021018E27912048018089A104246D063
:10262800F8200F5A43E009280A9F00D03746601C5B
:1026380010903CE0132811D80D3AD0B2410003287D
:10264800D548405A08D8D54A511832228A5C3231C6
:10265800497809028918401A470027E023280DD82D
:102668006179A27912025118E27912048918143892
:10267800089A4000114217D0C94916E0242809D108
:1026880049B2C8B2400900D1C8E1002900D5CDE15E
:102698000E21CCE12B2800D98FE140007949401860
:1026A800C0494056C70001E0BF490F5A01262E70A5
:1026B8006079A17909020818E17909044618601DB2
:1026C80015901198064213D1207A002810D040B2F4
:1026D8007C21C9437D2209F083FC0BF0D5FAC71988
:1026E800159A107851780902081891780904461843
:1026F8001A9D300400D1B3E06248407C000701D540
:10270800142000E064200B90199A53005F490F933E
:10271800CD5A90000B181A6C100A381A01B20A29FF
:1027280002DC0998814204DA002D03D1300604D175
:1027380000E000251898002823D030460D9908405D
:102748000E99884212D120784000974940180121FB
:10275800C943405E06998A0242431799002905D069
:10276800104619930AF0A7FF199B0246100A381A57
:10277800010408D000B21990002807D4F0B2050966
:1027880007E0199107E00020199004E00F200640A7
:1027980035460B9845430F993C484018403329B2B9
:1027A80001290ADB81490978002900D06D1E290416
:1027B80001D0058049E0099D09351999058000294E
:1027C80044D01892159A107851780902081891780F
:1027D800090446183004000E3DB215D0734800783D
:1027E800002813D017990029049A10461F4606D0CE
:1027F800C8174140091A10460AF0D8FF3B461999F4
:10280800002905DC0C2104E02A021FE0189A11E0D7
:102818000821CE400F2232400BD01999002900DC44
:1028280040420B9951430AF046FF189A82183B46DA
:1028380000E02A0219991012012901DBA84203DCE1
:10284800002902D5A84200DA2A02170A1A9D1A603E
:10285800159A1078517809020818917809044618D1
:10286800042021563002001212D41A20C04381429B
:1028780001DB1C2974DB7F20C043414038B20AF0D9
:102888003AFF13E04A08002000FCFFFFB8000020D0
:1028980008460BF0DEFA024638B2012A54DB00285B
:1028A80052D564218A1A50430AF005FF0746169E3E
:1028B800159A107851780902081891780904401877
:1028C800C1030AD4109909784A1E032A05D8490079
:1028D8001BAA8918891E0988CF1939B2179F4F4337
:1028E800119908423A4615D0217A002912D048B2E7
:1028F8007C21C9437D2209F073FB0BF0C5F96421E3
:102908004143CA19159B187859780902081899780B
:10291800090440180C9F4003800F02280CD001289E
:102928000CD1642110460AF0C6FE12994143C8171B
:10293800800D0818801203E0129202E01298101815
:1029480012906D1C0A34F4E5002AB0D50128169EB1
:10295800AEDB6432504364210AF0ADFE0746A7E7B8
:10296800062931D8880004A10858169E8746C04613
:10297800230F0020810F0020B9290000BB29000087
:10298800ED290000F5290000FF2900000D2A0000AC
:10299800172A00008F020000DC070020B40D002079
:1029A800740700206F02000094070020100F002019
:1029B8007EE73FB2F81787437AE72C2840D1642195
:1029C80012980AF078FE41E00029169E00D57F4251
:1029D800002901D50620411A38B2C91FC9B20AF028
:1029E8001CFDBBE73FB2002F0AD561E738B2C01320
:1029F80047403F1A5CE738B20028059F00DD57E7DB
:102A0800002755E738B2C70B0A98074050E738B295
:102A18000028059F00DD4BE70A9F49E7122007F0D1
:102A2800F9FA0126002813D00A9F40E61121081858
:102A380007F0F0FA0028059F00D037E60A9F35E630
:102A48002E3AD0B200210A4606F04EFE07462DE681
:102A5800132007F0DFFA002801D1059F27E6002799
:102A680025E600217D48179101707D4D28780028C2
:102A78001FD06421129818910AF01DFE014675486E
:102A8800007840002818C0884843B1006918079AA0
:102A9800002A01D10A6980181A9D08610399002942
:102AA80000D1C8E06E4989880AF005FE189A4243A9
:102AB80000E0129A6421189210460AF0FCFD720098
:102AC80065491292885205207043614A1318FF2005
:102AD8005E30195C1993181801231593C05600022B
:102AE80047182B200001105C41428F4200DB394619
:102AF800874200DC0846AD214A0019998B560A2105
:102B08004B430A9DEB181B1818331EB2554B9E42B7
:102B180000DC1E46199B9A18159BD2565143059AFC
:102B280051180818183805B24F48854200DB054689
:102B3800AF42189900DB2F46B74200DC3746002920
:102B480009D001D4E81B00E0B81B00B2484347494C
:102B58000AF0B1FD179038B2454FB8471799401899
:102B680001B228460D46B847854200DB0546304687
:102B78003F49884785423F4B129F00DC0546572056
:102B880080001999085C0028169E00D06D4219959E
:102B98009F2080002E4A105C1F2101401020401AFF
:102BA800C0B286423ED2D119C85C8000020639D034
:102BB800CD1840B280100BF05FF9297889090329F4
:102BC800014628D300281BD1189504221F4B9A5E72
:102BD8001F4B294FDB5D9B0606D40A9B14331BB29F
:102BE8009A422ADB002229E0D3135A40D21A12B2A1
:102BF800142A159A00DB0022019B1A42129F03D067
:102C0800012250401D4A10701C480078002800D14D
:102C1800012112480170002904D0159828560BF09C
:102C280033F8199072B600BF02981999C15362B669
:102C380000BF0C9F1A9D761C75E40122129F019B10
:102C48001A40012ADCD0DFE71DB0F0BDFC070020E8
:102C58004A080020810F002094070020690F0020F7
:102C6800640200201EFBFFFFE2040000A0860100B2
:102C78007FDD00007D02000073030000430F002089
:102C8800F0B587B0F64800250570F64F3E8808F085
:102C9800D1FAF5480168F54A12680260501AF44CF6
:102CA8002070F448294604F063FC2078002800D1FD
:102CB800A5E2F1480178002901D0491E01700AF007
:102CC8003BFFEE498A8890422DD14520EC4A105CA2
:102CD8000A3002062CD0EB4A1278322A28D30A7816
:102CE800521C0A70D2B2102A22D300220A704A88D3
:102CF800521C4A80FF217831C0B2484380B291B259
:102D0800884215D21F200240012A11D1DE480178DD
:102D1800FD220A400270062009F0A4FE10202D2191
:102D280009F080FF04E04D808880D84801210170B7
:102D380002F02CFD09F0B6FED5480178002901D033
:102D4800491E01700596284604F050FE0AF098F8CE
:102D5800D04806780570D048807C032801D0074603
:102D680000E00427042800D108270F203040801FE6
:102D7800072804D8F0213140202900D085E04020E0
:102D8800304340281AD106960020C643C34C207809
:102D9800411CC8B28842374600D1074609F012FFE5
:102DA800002800D10027F8B2C82800D03E46267077
:102DB800C82801D0069E01E04220C6430C20B8492D
:102DC8000A5EB848415F891ACB0EC9184909090437
:102DD800294606D002800421415E891ACB0FC91802
:102DE80049108280B04A1278002A00D00021462477
:102DF800A34F3A5D920600D500214180AB4D68791A
:102E08006978091ACAB2D2098918FE220A4010182C
:102E1800687148B2401028723043C0B208F08EFA88
:102E2800A34800788000A34909585C20385CC01D7D
:102E3800A14A914200D0A7E0A0490978002900D012
:102E4800A2E0297A00290ED000222A720622AA5668
:102E580049B251187C22D243914200DC11467D29A7
:102E680000DB7D21A9719F2189008B4A525C5109A1
:102E780000D189E010067BD4480089494018C088F1
:102E880001218A028018C90279E044217C4B595CEF
:102E980089008B4A5118C0B24008085C5D21595C12
:102EA800C90701D00321081AC4B286480078214610
:102EB8000AF0BFFB049021460AF06DFF002F09D1EC
:102EC800C11302464A40511A0AB2920F891889B2B0
:102ED80089084F1C022C11D14621694A515C7A4A53
:102EE8006D4B9A5C92094A40D2075B7C01211940DC
:102EF80000D00227002A02D07F4200E00021F2071A
:102F08007AB2069400D15242121893B25C1EA341C1
:102F180014464440240401D5002400E00124234041
:102F28000B430ED100280CD000220498069908F013
:102F380053F9304609F0D8FE162009F0C9FF0026DB
:102F480021E717B238467C3080B2F82868D8049850
:102F580006993A4608F040F978B2C0114740381A45
:102F6800C0B281083C31152009F0DAFF00260AE7D3
:102F7800480049494018FD4940567D30FA2182B23F
:102F8800072050430AF012FC50490978C0B2884221
:102F980001D009F067FD4C2038560028FB4B0696F7
:102FA800049423D51878002820D0F9480078002800
:102FB800F34A00D18EE00026F64FB857002801D416
:102FC800401C3870022008F011FA7F240146214085
:102FD80011D03A788A4220D93E7006990906E84A03
:102FE800EA4B77D1000639D5632072E0E848002122
:102FF8000170E34A6EE0032008F0F8F904400CD0B1
:103008003978A142DE4A09D93E7006990906DF4B94
:1030180060D100065CD564205BE0D94ADB4B59E0FF
:10302800002F02DC7C20C24300E07D220699049830
:1030380008F0D2F838467D3080B20026FA2800D948
:10304800A1E678B2C0114740381AC0B280083C21C6
:10305800081AC1B2152009F063FF94E6622038E02F
:10306800820F0020F2030020140400200404002032
:10307800100F0020740700201A0F002030080020CD
:10308800B40D00202D0F00206B0F0020130F00201F
:10309800230F00201D0F00204A080020610F002088
:1030A800FC0700201E080020160F0020EA0E002052
:1030B8002F0F002090030020F1330000070F00209D
:1030C8004DF50000810F002073030000800F0020E1
:1030D80065200690012003901870AD790020B74F45
:1030E800C6B2072E18D270001018C41960780028CC
:1030F80010D00528294603D007F0D8FCA04A01467D
:1031080048B27C21C943884200DC08467D2800DBA0
:103118007D202070701CE3E79F4D286800280FD0A1
:103128000024214607F0CEFF0AF07EFE9B490A786C
:10313800012A059E8E4F1ED1002820D12C601EE04A
:103148009649087096490C78002C059E884F04D043
:103158000870172009F0BCFE06949248069A02707F
:1031680091481421017087480078800086490958E1
:10317800D0B2884703E0002801D00398087006F011
:10318800BDFE8A4800781F210140022934D18848B1
:103198000478103404700E208649085E410F4118E7
:1031A80009B2C9083022744B9A564A4300011018D4
:1031B80080B2A52149000AF0F9FA704D297808185B
:1031C800401C40082870210616D12F216A4A515CFC
:1031D800C0B2814210D911202E2109F023FD287890
:1031E8000121242209F0BCFF04986349085C000708
:1031F80002D57148322101805E4800210170704873
:103208000178032901D1002101703888801B82B21E
:103218006C490B889A4200D908806B49C878002805
:1032280000D195E069480188491C018000206D4E55
:10323800C7B20B2F00D986E003200390784350498A
:103248000918644802910B189D1C99780F240846A8
:103258002040614A1018401E007803280493059501
:10326800069437D178005D4A125E002A02D008D44D
:10327800541E1CE09C56002C19D4E2430A245443E3
:1032880015E092B2541CA2B2A24210D003227A4393
:103298003B4B9A18524BD256002A05D4521C52B2B4
:1032A8000A2353435C1E01E0FF249443049B4B4ACA
:1032B800121808090CD00828019200D9401C0AF0FD
:1032C800DBFD002801D1424C7C342978049B019A0B
:1032D8001480069C21400C293546F65D07D1002450
:1032E80018570AF0C9FD002803D001240CE0344621
:1032F8000BE00320784322490818394940560AF060
:10330800BBFD002800D13446049B2E460598007862
:10331800069908400D2813D1002018560AF0ACFD74
:1033280000280BD0A0070BD42D48029908560AF0A4
:10333800A3FD0028039C03D1022401E0FD200440E2
:10334800F455781C74E709F0DDFB00201E49C870AD
:103358004878002807D0002048700D4801780029D7
:1033680001D0491E017007B0F0BDC046B702000089
:10337800F2030020130F0020B40D00202D0F0020B1
:103388004A0800202F0F0020900300206D0F002016
:103398006C0F00203E0F0020300400203F0F00205B
:1033A800780F00206A0F00206E0F0020300F0020D9
:1033B800400F0020CC07002038080020B902000088
:1033C8002C0F0020360800209C0F00203E0800200B
:1033D80083FF000056020000FCF50000B40700203F
:0833E80057020000CA0E00208C
:1033F000F0B587B0DA4900270F7042210391D9490F
:10340000CA7C0F21154604910D40D74E3178002912
:1034100026D006971420D54E30560AF031FD040010
:10342000D34F04D03878002801D105F021FC3C703E
:10343000E8B20290012869D0CA480478CD480578DE
:103440000A27782F08D03278F8B20021042305F03B
:1034500045F8761C0B37F4E7A54228D3842227E0F1
:10346000702111400346803B0E2B00D8DAE0034662
:10347000203B0E2B00D985E15B00C0467B449B8836
:103480005B009F440F000E00E501E901F301020219
:103490000E000E000E000E000E000E000E000E00BC
:1034A0000F00B6E7012DB4D100243570D3E0862299
:1034B0002520102109F04CF92620182156220AF067
:1034C000EFFC5D20002404231021224609F0E6FBD6
:1034D000332018212246234606F0A4FB08F0E6FE1E
:1034E00000280BD002462620102109F067FA25207B
:1034F0000F210923262209F03FFC07E09B48837C2B
:103500000094262010219C4A0AF070FB069EF5B21A
:10351000042D65D2284609F0B3FB0446974800788D
:1035200029460AF03CFCC213910F411809B28910D8
:10353000002801DC084600E001200B06069600D1B9
:1035400081184FB21B20C043874200DC07461C2F66
:1035500000DB1C278A480019401E0478012D0BD07F
:10356000022D20461CD10421362206F027FFE24816
:10357000407CC00705D010E004213622204606F02A
:103580001DFF601EC0B21E21032206F017FF601C43
:10359000C0B21E21032206F011FF1F20C11B14E040
:1035A0001B38C0B23B2105913622E14B9847601E83
:1035B000C6B23A2103223046DD4B98473C213046C3
:1035C0000322DB4B984705993C19069EE01EC0B2CA
:1035D000C91EC9B2072213460AF00CF8761C96E7FA
:1035E0000298002814D0012800D090E0112000900B
:1035F00008240026C04A0A23204631460AF099F9D9
:10360000CC480078BD490978814229D3304628E06A
:1036100006F032FCB148057806246C43002D55D1E4
:10362000284654E05B00C0467B449B885B009F4477
:103630000F00E400E900F400FB0005010E000E009D
:103640000E000E000E000E000E000E000F00E0E651
:10365000002402213170747009F04AFBA548A3E0F0
:10366000012042005420002109F072F86F2000214F
:103670000022002309F012FB302008F03FF93F2020
:103680002146302206F09AFE0720C743002F3ED085
:103690009948C0199C49405C002815D03E46083620
:1036A000451EE8B207F076F8034600200090049823
:1036B0000190F007204600D00398B2007821114015
:1036C00010316AB203F082FE7F1CDFE7E01CC1B25A
:1036D0000A2009F0B5F8002D05D0A01DC1B2642064
:1036E00009F0AEF813E064202821854A0AF0ECFBCB
:1036F0007220072228210AF021F83021814A642013
:103700000AF0E2FB0422722030210AF017F8714C13
:10371000207800286FD0012806D17C4803210E2292
:1037200004F03AFE052105E079481F210E2204F03D
:1037300033FE0021774A0023937001285BD1A078E3
:103740004018C0B2062856D8784400794000874413
:10375000032D364145494D00654808F03FFD4AE0DC
:103760006D0F0020E30D0020070F00204A08002005
:10377000410F00202D0F0020F8F40000810F0020E1
:10378000FBF90000612800D18CE0BF2800D040E6A2
:103790000124514E2046B0470320B0470220B047D5
:1037A0004E48002101704E48047032E65E480370B6
:1037B0004D48012101705D4808F010FD1BE001201B
:1037C000907057480078800056494018406808F0CB
:1037D00005FD10E0454808F001FD0CE0414808F007
:1037E000FDFC08E0544880884C4902E052480088BB
:1037F00049494042088007B0F0BD09F077FB0AF064
:1038000059FB63E0012001434A48C174172009F0C5
:1038100063FB822009F06CFAEDE7324808F0DEFC29
:10382000832009F065FAE6E72F480121017030484E
:1038300008F0D4FC842009F05BFAEAE52A4801216B
:1038400001702A4808F0CAFC852009F051FAE0E529
:10385000002D2AD06D1E29E0684245412943354894
:10386000C174A12008F0D0FD132030E0012D27D035
:10387000002D00D0CDE519480178491C4AB2022A32
:103880002A4600DC0A460270C3E5012D16D0002D41
:1038900000D0BEE511480178491E0A0600D5022174
:1038A0000170B6E5012D11D0B3E50125294321486A
:1038B000C174A12008F0A8FD142008E0303200E017
:1038C000103230201040401C1A49C874172009F0EB
:1038D00003FB9EE5070F0020F1CC00005F0F0020E6
:1038E000410F0020ED910000160F00207914000018
:1038F000815400006A0F00204A0800202D0F00208C
:103900003EFA00003BFA0000B90200001DF400007E
:1039100057ED00000B0F002044080020480800204D
:103920002F0F0020900300206F0F002011040000D3
:0C39300097DE0000E30D002044020020A0
:10393C00F0B58BB00546D9480AF00BFAD84C207874
:10394C0000281BD0D74A117A002010724AB2012AE3
:10395C0001DB622200E06322002900D01546D24927
:10396C000978002901D1632D05D0622D04D1CF4AED
:10397C001256914200D10025CD480570CD480078F3
:10398C00002805D1C9480278C748294601F052FAE7
:10399C00C74E3078C44909780691012103912E282D
:1039AC0003D0BF280AD060280AD1BD490A78002A62
:1039BC0037D0C148002202700A70C04C0020207021
:1039CC000295069840B208F071FF0146F94800785C
:1039DC00002801D000203070F248007800280791B0
:1039EC0031D0F34806783746623F7C427C41622EE8
:1039FC0001D0632E27D1F14805782C43284609F0D5
:103A0C00EBFA002C17D0202D1DD8622E01D1202DC1
:103A1C0019D00021622E04460A9100D18CE1C843D2
:103A2C008BE1E44909780029CAD109F05BF900203F
:103A3C0003903446C2E70178022901D3491E017074
:103A4C00022008F0DBFC012000263546C1B210290B
:103A5C0000D908E109910890F0B20A9009F0BCFA7B
:103A6C00079B0446EFB29F420BD3F81A062808DCDA
:103A7C00C0000830C1B201200023099A0AF061F994
:103A8C00079B0A981F2800D9C3E02078099988421F
:103A9C0000D0BEE0C44A0F46E8B2984200D2AEE075
:103AAC00C11A062914DCCF00BE490978002200296E
:103ABC0026D10699C9B2814222D10898C149087011
:103ACC00BE4806700398002813D0BA48007815E059
:103ADC00072900D093E0B3480078002800D18EE08D
:103AEC00B7480078F1B2884200D088E01078401CCA
:103AFC0080E00120AF49087002924A704242424174
:103B0C0005920837F1B20A980491884209D0E079FD
:103B1C0000210091F9B24007830F1320AE4A0AF03E
:103B2C005FF8FFB2302000233946224607F008FD2B
:103B3C00022022562D203946059B0AF098F8A070D9
:103B4C00E078002805D042B248200023394606F020
:103B5C00EDFC207900281DD06179A2791202511850
:103B6C000722A256120489180BD401461B31C9B284
:103B7C00362909D842B260200023394608F00EFBE2
:103B8C0008E06020642201E06020452200233946D1
:103B9C0004F09EFC6079A17909020818E179090406
:103BAC004018FF210902014001D0532200E02022DD
:103BBC00002901D02A2100E04421000600D00A4649
:103BCC00792039460AF066F976480078002813D037
:103BDC007B480078049988420ED118206622002375
:103BEC00394608F04FFA75480670284606956E4A15
:103BFC00079B099F107002E06B4A079B099F6D1C85
:103C0C00F0B21E2823D8761CA07A0A34B8421BD1F5
:103C1C0042E70698C0B2B84215D1684806700898B9
:103C2C0068490870E81AC000C01DC1B200241922EE
:103C3C000923204609F09AF80398002803D108F0CC
:103C4C00A5FE002805D06D1C0898401CFEE6202619
:103C5C00FAE75A480078214606F07EFE5148047077
:103C6C00594808F0B5FA5348007800285FD00298FC
:103C7C004F4C207055483F210B2204F087FB012844
:103C8C004ED14C488078052833D8C046784400790A
:103C9C00400087442415262E3237C046A3F9000075
:103CAC001B0F0020EA0E00205B0F00201C0F0020D1
:103CBC006A0F0020070F00201F0F00206F0F00203D
:103CCC0008F064FE00280AD13C490878401C0870B2
:103CDC00C0B20024214606F03FFE324804703A4838
:103CEC0019E036490878401C0870C0B2012106F072
:103CFC0033FE01202B4908700FE03048007834491E
:103D0C00087002E03248FF210170207808F0EAFFC9
:103D1C00002020702F4808F05BFA0020254908701D
:103D2C002548002101702548007825490870681E37
:103D3C001E4908700BB0F0BD01202D18E8B209F037
:103D4C004BF92178002900D17DE6102900D97AE6BB
:103D5C000278102A00D976E623468A420BD10A2132
:103D6C000A060CD002781C461B7803702270631C68
:103D7C00401C491EF4E7102904D30A9A03E01048AA
:103D8C0005705DE6012278427841104002D1622E26
:103D9C0000D155E6002801D1C04300E001204018B5
:103DAC0018704DE61B0F00205B0F00201C0F00202D
:103DBC006A0F0020070F00201F0F0020640F002047
:103DCC00620F0020650F0020E93D0000AEF00000FE
:0C3DDC002A0F002095AB0000F6F9000053
:103DE800F0B58FB005463148007809F0F7F8064677
:103DF8002F4C0E2220460795294601F01DF82D4824
:103E080009F0A9FF3278801DC0B2002529462B464B
:103E180009F099FF6457204608F04AFD06902648A5
:103E2800027808202549039009F0CFFDE0B20890F8
:103E3800701D05900D96E8B2072800D300E2069899
:103E48002818C0B2089981420C9501D0002501E0DC
:103E5800FD490D780E2800D9EFE10C99CE003146C6
:103E68000831820002A39A58CFB2ECB29746C046F6
:103E7800C93E0000E73E0000FB3E00000F3F000087
:103E88002B3F0000473F0000673F00009F3F0000B6
:103E9800FD3F000019400000AB400000D340000087
:103EA800F14000000D41000029410000640F00208E
:103EB800520F002037F80000190F0020E5E8000035
:103EC80039460D9F7E7854203A46234607F03AFB40
:103ED800252E00D034E1787A4609253632E10220D1
:103EE8000D9D2A5660203946234609F0C2FEA87067
:103EF800A3E10D9D03982A5660203946234609F010
:103F0800B8FE287299E1059DA8780007C00F3946C8
:103F1800224609F0ECFEC007000FA978F7220A40F4
:103F28001AE0059DA8784006C00F0D994978042924
:103F3800394600D914E1224609F0E2FE14E1059D54
:103F4800A978012008403946224609F0D9FEA97807
:103F5800FE220A40C007C00F8018A8706DE1059ABC
:103F6800107851780902081891780904401800025D
:103F78000012CD0D002800D508E104200D9908563F
:103F88001A21C943884203DB1B28B74A00DAFEE03E
:103F98000225B64AFBE0059A1078517809020818FC
:103FA8000221515609044018042600280D9882570A
:103FB80000D507E11A20C043824202DB1C2A00DA3E
:103FC8000CE17F20C043424040202843C3B2662012
:103FD8003946144609F060FD280606D06320C1431F
:103FE8006422204608F0F2FF04460D9B80206040C2
:103FF800187122E1601E2146814103200D9D2A5639
:1040080000914E203946234609F0B3FBE87014E1CD
:104018000B9728060A9002D004208D4908700720C3
:10402800099006430024012104960D9BE7B2042F52
:1040380000D902E1587A0E9108401F2630404342C9
:104048004341099D654328463F30C0B2214630317F
:10405800CAB20B9904F03EFA0A9800281CD07D4891
:104068000078B84218D10498C1B23E35E8B20822A7
:10407800092308F07DFE07982E2801D020280BD1AF
:104088000E9806400D99487A70404872022008F050
:10409800B7F9002070490870641C0E980006C10D1D
:1040A800C3E70899081A43424341059CA078400792
:1040B800820F3846654905F093FE8007400FA178C6
:1040C800F9220A408018A070B7E0059E32780F25C3
:1040D8002A403846214607F067FF28403178F02209
:1040E8000A4010183070A8E0059D28780209384663
:1040F800214607F059FF000129780F220A401018BD
:1041080028709AE0059D68780006020F3846214617
:1041180007F04AFF000169780907090F08180DE040
:10412800059D68780007020F3846214607F03CFFD6
:104138000007000F6978F0220A40801868707CE058
:1041480000D9B61D280678D070B20121372208F0B0
:104158003DFF3B4625286FD32C2865D3801F6BE095
:10416800434A234609F031FD29786A78120251182A
:10417800AA7812048918334A114029700A0A6A7009
:10418800C007400E090C0143A97056E0354A0620C5
:104198003946234609F040FB002C284602D002216C
:1041A80008F08CFE85420D9B47D0811E4A424A4149
:1041B800D1011971C001059A91784906490E08186C
:1041C80090703AE06420009001946320C343482033
:1041D800394605F0D9FE0D9B18712EE00C203946A2
:1041E800234607F0DDFF0D9B002C26D098570F21A2
:1041F800C943162208F0EAFE0D9B18710799602939
:104208001BD1072807DBC01F14490870144807F0A2
:10421800E1FF0D9B187901060FD5C0430F490870BF
:104228000F4807F0D7FF08E0597A1F220A404001DB
:10423800801860305872252058700C9D6D1CFAE566
:104248000FB0F0BDFFFFBF00770F0020CBF20000DA
:104258005D0F00202E0F00201F0F0020660F00208A
:104268008D7F0000C7F90000A9F90000CDF9000012
:0442780056F60000F6
:10427C00F0B58BB00546F74809F06BFDF64C20788D
:10428C00421C4E200027394609F01DFE21780922D8
:10429C0010460A914843F1490818F14946183079FB
:1042AC00400700D00A22EF4C2046294600F0C2FD00
:1042BC002846E557341D052D09960DDC0820F749D5
:1042CC0009F04FFDE948077808F014FE3078002D0E
:1042DC0000D18FE0002393E004900826E249304699
:1042EC0009F03FFDA81F43424341E0480078069087
:1042FC0020784006820FDE4907972F462546DD4C75
:10430C0002960820A04726462C468007400E2978A6
:10431C009F220A4010182870F81F43424341CA09D3
:10432C001020D549B047C0012E787F2131400818A4
:10433C0028700897083F7B427B4107252E401820A8
:10434C00CE493246CB4FB847059528402178F82204
:10435C000A4011182170B04209D009210A9A514320
:10436C00BE4A5118C64A079B8B5489184B700028BB
:10437C0067D02020C34909F0F4FC2078284028217C
:10438C0003910A2105910228089D00D1FDE0012826
:10439C0000D010E109200A994843B0490818B849DF
:1043AC00425C44186078000280187D218E00092D33
:1043BC000BD100B232460B320021022303F058FA23
:1043CC002070010A617006990791F11D02B28A42B0
:1043DC0000DCF4E06C202021AD4A079F3B4609F03D
:1043EC0019FA20783530C2B2782020213B4604F0EF
:1043FC006FF80DE140B25E2108F05EFD30703B4677
:10440C00C2B26020082105F08BFE3078002822D043
:10441C00401EC0B206F0D8FA06460820A04909F0A2
:10442C00A0FC09980078252810D382210022009244
:10443C000191253842B248200821334602F0C0FFD2
:10444C0009E020270924874E089DE4E04820082134
:10445C00324609F038FD09200A9948437F490E1865
:10446C00DF208100705C012D0A9707D1771840B2CC
:10447C00062108F021FD38700A9900E00021C3B232
:10448C00042B009101D8884A02E0401FC3B2854A30
:10449C004E20102109F0A4FB022D18D18348642171
:1044AC0001700720C701F05DF219012151560894E3
:1044BC001446090208187D210A027D49022303F0E3
:1044CC00D7F9F055000A6070089C0A9B00E00023A5
:1044DC0009980078252811D30721C901725C71183D
:1044EC000127C95782270093019709028B18253899
:1044FC0042B27820182102F063FF0BE00720C001C4
:10450C00315C3018012280560002421878201821A4
:10451C0009F0C0FA6749705C0023032D09930AD196
:10452C00771840B21521C943162208F04DFD38709A
:10453C000A9F3B4600E00A9F42B26020202105F012
:10454C00F5FF5D49705C042D06D1761840B221212F
:10455C0008F0B2FC307000E0099FC2B26020282144
:10456C003B4607F07BFF681F434243412078C0065F
:10457C00820F3020514905F031FC8007C00E2178A4
:10458C00E7220A401018207061E009200A9948437C
:10459C00324908183A49425C441860780002801885
:1045AC00092D16D140B20F2108F086FC0021617054
:1045BC00207006990EE02B4E039F0A242BE0B2428A
:1045CC0012DD0C30C2B26C202021079B07F0BAFF21
:1045DC001EE00021234E039F0091C3B25A202021DC
:1045EC00294A09F0FDFA15E078202021079E334670
:1045FC0009F050FA002E0BD00498802805D12078B1
:10460C0061780902081807F0F5FF204800210170B5
:10461C00144E039F059C1F49384609F0A2FBAC427F
:10462C000FD1049880280AD10921099809F035FB8B
:10463C001648002101700A2D01D102983070069B9A
:10464C0000E000234820144A394609F0E3F80BB087
:10465C00F0BDC04653F700005C0F00204A08002054
:10466C007B0300004A0F002021F10000770F00208F
:10467C00DCF30000E99D000047F70000C6F30000E2
:10468C0082030000C5F70000D4E900001F0F0020D2
:10469C002FFA000074F9000019F800005DF000001A
:1046AC00DDF900006DF5000062E900006E0F0020DE
:1046BC000083FFFF7D0300007E030000F3F1000088
:1046CC00F0B583B0DD4E0124347006F009FC0025F2
:1046DC00DB484157002906D5DA4A1378F0261E40EC
:1046EC00331DD64E1370D74F3A78142A34D8520053
:1046FC007A449288520097449A009A009A00830058
:10470C006F00030103010301030103010301030112
:10471C00030103010301030114001400140003013D
:10472C00070107F0B3FE032009F0D6FBC02009F007
:10473C003CFA08F001FB3878401C387038780F21AF
:10474C000140032903D33878F021014039703878BF
:10475C00202101433970D3E010462038032866D35A
:10476C001046303803281DD2252007F0A7FEB64886
:10477C000178BC2900D0C3E0417A012900D0BFE008
:10478C004279BF490A703A78F0231340DA1C3A7028
:10479C00B94A00231370027ACA70C2798A70807980
:1047AC0048703FE0242A17D0342A00D0A8E0002417
:1047BC00204609F0A3F8800600D5ECE0252007F090
:1047CC007DFEA14E717A3078AA2800D0DCE0FC295D
:1047DC0000D0D9E00120DCE0A54D2878411C2970DF
:1047EC00A4490C5C9E48007803F024FD3878DF2146
:1047FC00014039702878102872D30020287071E09D
:10480C009D4A13785B1C1370DAB2042A0FD33A78E2
:10481C00F02313401A1D3A70954A0123137080221D
:10482C00114301703878DF210140397068E0864C03
:10483C00FF202072E071A07160710020A07283498A
:10484C00096861700A0E22710A0CE270090AA170E3
:10485C003D788849102804D022180B5CD372401C78
:10486C00F8E720461B300A21FF2209F017FA252011
:10487C00002121540F2005406E1E032E1DD2BC209A
:10488C002070032D0ED17E4801786171C1782172A0
:10489C008178E1714078A07120460B301021FF2205
:1048AC0009F0FCF9802020770120E076F0B2022894
:1048BC0000D302206072614E06E0002D5F4E03D1E2
:1048CC0001206072BB2020703878DF2101403970E4
:1048DC006A480078C00701D00D2401E07320C4435E
:1048EC0007F080FFE1B2252006F0A6FE08F024FABE
:1048FC0062480178491C01705A480188491C0180A2
:10490C000020307003B0F0BD07F0C0FD204609F068
:10491C00E3FAC02009F049F93878202102910843C4
:10492C0038705048008801904F4909F002FA4E4205
:10493C004E414E49019809F0FCF9002900D0740051
:10494C004748047008F0F8F9424848C840492B2DF4
:10495C0013D0485D002802D0401E48550BE00120C2
:10496C0000212A463C461F4609F0D5F83B4627460F
:10497C008E43374983436D1CE9E7364848C0387885
:10498C000299084338700AE0AA280AD1FD2908D1F7
:10499C000220334908703878DF2101403970274EE6
:1049AC00AEE7AA2801D0AC28F5D1701C2749042207
:1049BC0008F049FF02903249701D042208F043FFB1
:1049CC0002990843E7D11D2008F098FF2049FF22E7
:1049DC000A7120490A68102313430B603C2800D845
:1049EC003C201D490A6810181C4D2A69801A086061
:1049FC00642108F0D9FE28613078AA281BD0AC2895
:104A0C00C9D134460934A01B08381928C3DC2078D6
:104A1C00FF28C0D0A578AC21204603F05FFB2819F5
:104A2C00C41CF0E7301909300178FF29B3D0AA2152
:104A3C0003F054FB241D1C2CF4D1ACE7710F0020A7
:104A4C00220F0020700F0020680300202C0400208F
:104A5C008F0E002000F8FF1F880F0020B8010020E7
:104A6C00560F00203C080020210600002105000004
:104A7C002B0F0020BA0E00203A0F0020260F00202A
:044A8C00300C0020CA
:104A9000F0B58CB01F246102CB48426B0A434263DD
:104AA0000121CA06836B13438363C84BDA68102065
:104AB0000A900243DA60C64DAA69C64E3240AA6126
:104AC0006A6832406A606A6932406A61C2488268D4
:104AD00032408260C14A956D35409565556F3540CD
:104AE000556705683540056016259D60DD680D43F6
:104AF0000E27BD43DD60002506951D6247255D62DA
:104B00001C605C6A80250B952C4340250995AC43BD
:104B10005C621C682406FCD50F2007900304B04E8D
:104B2000746D9C4374650B02AE4C23646364A36490
:104B3000E364756D3D4375656360A360E3602025A4
:104B4000ED437561A8480361756D0D437565C843F4
:104B50000490356C0540356423608D07A34C67696C
:104B60002F4367612768AF432760936775690A9889
:104B7000054375613568054335609B48C360CF07C1
:104B800065693D430897656125683D432560D367A6
:104B90004D0377692F43776137682F43376003638D
:104BA000934F7D6D0B9805437D653D6C05433D64DA
:104BB000874DEB6107988504104662692A4362615C
:104BC0002268AA4322608364C36403654365054683
:104BD0000320029000022A6C024305902A646A6C4A
:104BE00002436A64079802027D6915437D613D684E
:104BF00095433D607848036243628362C3627A6D85
:104C0000049802407A65724803607A690225AA43D3
:104C10007A61714A53607A6D0A9DAA437A6503618D
:104C20000A037569154375613568954335606E48AB
:104C3000C36288050190644E326B024332634802BE
:104C4000654A9061039050616A4D12200490A870EB
:104C500019226A702970684A083A106807916749F2
:104C6000084010600798800265490860A878099A92
:104C70001043A87078690A9A104378613868104325
:104C80003860554D2B61786D042210437865386C7F
:104C9000904338644E498B605A48026078690B9A99
:104CA00010437861386810433860EB6178690822F6
:104CB00010437861386890433860EB606069029D0A
:104CC000284360612068A843206044480360436033
:104CD000CB60494BD8684C49084008994018D860C7
:104CE000474C21600799CF05B06B3843B06305206E
:104CF0000A9000020090DB30444A106095609F20CB
:104D00001061072090611D4658683C4A1040C01948
:104D100058602346019820603D48069C04603D4849
:104D200030604806B26B0243B2633B483B4A826044
:104D30002A68324F3A402A608A041A604922026087
:104D40003148401CB26B0243B2633548354A826039
:104D5000FF2212022F689743CA03BA182A604A0436
:104D60001A6004608B06B26B1A43B2632E4F2F4A4F
:104D7000BA60FC602E4A3A611B48059A02603268AC
:104D80001A433260039A426028681F4A1040089A0A
:104D900080182860C8041A4908603C60306B099983
:104DA000084330630D480099416601662148049923
:104DB00001700B99417020482049416084600A9934
:104DC00001600CB0F0BDC0460480044000B0034058
:104DD00000C00440FFF8FFFE00B0044000D00440D3
:104DE00000F00F4000A004400490044000F10F4088
:104DF00080F00F400160074010E400E0FFFF00FF7B
:104E000000E100E0C40000F8FFFFFF000071034074
:104E1000007003400000010100900340FF0B000000
:104E2000008003403B2D000000A00340FFFF000076
:104E300060EA00000160064010E000E07FBB000077
:104E4000F0B583B002920F4601900825B548425F45
:104E50000621B54E715E891A8B0EC9188911B34BA4
:104E600019700A23C35E705FC01A840E0019801186
:104E7000AF4C2070C0B2C9B2002900D0F280AD4A58
:104E8000002800D033811478AB4A1378002B03D16B
:104E9000B44B1B789B0606D50020A5490870A34992
:104EA000087010700146002904D1002802D17088D2
:104EB000002801D007F06AFEA04806780120009083
:104EC0000298FF285DD09E48007801281FD0002856
:104ED00040D19D490878012802D10020087034464D
:104EE0009A4B5A5700201872012A18DB611CCAB26B
:104EF000521A531E9A41B442019B01D2002A23D078
:104F00001978029A91420ED2491C19701BE00020B8
:104F10002E2F1DD08B49097800291BD118E0002ABB
:104F200004D4214610E0002119700DE0002C019DF1
:104F300001D0611E08E02B78002B029A00D05A1E87
:104F40002A70009A0A7000212E2F0C4602D10120EF
:104F50007B4908707E480078401CC5B2854201D06C
:104F60000020C54307F032FE002800D10025E8B23A
:104F70003D2804D3012072490870724908707448B2
:104F80000570744806706F4D28780028019A16D075
:104F900038466038052836D938464238032847D97C
:104FA000212F6BD02E2F36D0812F60D08E2F62D044
:104FB000BF2F00D09AE0002414702C7096E05C485B
:104FC0000078002810D01178081A40B2C117884321
:104FD0000299884200D30846107000205449087096
:104FE000E4B2B44200D3344610780028D0D04F4801
:104FF00000780028CCD0201A44B2E0178443B44291
:10500000C6D33446C4E7C04678440079400087449C
:10501000026D1D262B5B0298FF2867D0287841423D
:1050200041412970002861D14548012101705DE0AE
:105030007844007940008744012A36451078029967
:10504000884253D02978002904D04FE028780028DE
:105050004CD110780299884242D3002041E0287850
:10506000002843D1107818E0002E21D13EE0002026
:105070002870009808E08E2007F03AFE2878002873
:1050800002D00020287031E007F078FA2EE0107886
:1050900000282BD02978002928D1002801D0401ED3
:1050A000029002981DE0002E20D0E0B2B0421DD048
:1050B000287800281AD128490870E1B2B1422ED3CD
:1050C000002413E0200611D0002E0FD028780028ED
:1050D0000CD1214800210170200606D0661E04E094
:1050E000401C1070E4B2B44200D33446114804703E
:1050F0000020124908702878002801D0022100E021
:105100000121094B154A117059884A1E9141002806
:10511000009A00D10A461248027003B0F0BD641C28
:10512000E4E7C046FC0700201E080020180F0020FE
:10513000170F00202E0F0020160F00205D0F0020FB
:105140006F0F00201F0F00203C0F0020EA0E0020F0
:10515000740F00207C0F00206A0F0020770F0020C2
:085160001E0F0020FA0D0020D3
:10516800F0B587B00746B14EF07B0690B04800789E
:105178000490B04805780020AF49059008F0F3FD89
:10518800F07B0F242040042800D9F5E0784400790A
:10519800400087440B255702020008200090A548CC
:1051A800012339462A4606F0D1FDE5E0A14805224B
:1051B80039460292FFF740FE0820A84908F0D3FDBF
:1051C800707C0027012D63D14009072107F076FE86
:1051D800717C1F220A40400110187074012358E0A6
:1051E800944804223946FFF727FE0820964908F01C
:1051F800BAFD012D0AD1082130220020034606F00D
:1052080043FF602F02D1914806F0E4FF9048305CDC
:10521800400703D110208F4908F0A5FD032D00D1C8
:10522800BAE0022D00D0D8E010213022002528460F
:105238002B4606F029FF602F00D0C0E0864806F014
:10524800C9FFBCE07B4802223946FFF7F5FD08207C
:105258007A4908F088FD7A4AB05CB718797809026B
:105268000818012D28D100B24B2115468A00C832F2
:105278007449022302F0FEFA02467055000A78705B
:105288006B4803786620082108F006FC059FB9E002
:105298003B46C0B2420931323C20082103F01AF9DA
:1052A800307C022D16D140B20121C943042207F0F7
:1052B8008DFE307404990EE002B266200821059F25
:1052C8003B4608F0E9FB002D59D0022D00D099E0AB
:1052D800102094E000210091801CC3B23C201021D2
:1052E8005F4A08F07FFCF07C032D08D140B203210F
:1052F800C9430A2207F06AFEF074049B00E0002309
:1053080040B2322141434B2080000A184C2018211A
:1053180008F0C2FB5349182008F025FD707E042DC3
:10532800039408D140B21321C943142207F04EFE5A
:105338007076212300E020234B49009140B2029966
:105348004143E1318AB24C20202108F0C6FC681F95
:1053580043424341B27D012422402820434904F0BE
:105368003FFD2040B17DFE220A401018B07540492B
:10537800282008F0F8FC039C002D059F42D1F07B03
:105388002040042107F09AFD2040F17BF0220A40DA
:105398001018F073049F35E0294D705D77190121CD
:1053A8007956090208184B218A00C8322549022378
:1053B80002F060FA7055000A78701D480578059F5C
:1053C8001F48315C301801228056000242186620BE
:1053D80018212B4608F060FB14E01948315C30189E
:1053E80001228056000242186620182100273B46F9
:1053F80008F052FB002DC2D0042D03D1202001213A
:1054080006F03EFDF37B0097234024200024194A30
:10541800214608F0E7FBF07B06994840000702D0D8
:10542800347407F031FA07B0F0BDC0464A080020CE
:10543800770F00204B0F0020B5F9000031F4000071
:10544800F30200000CFEFFFFFBF00000A992000031
:10545800FE02000083F600001172000089EF0000D0
:105468008FF2000007FA00000BF600000FF80000AA
:0854780066F800006BF1000072
:10548000F0B587B00290B24808F069FCB14C2778BB
:10549000B1480078002804D1AE480F220299FFF7E6
:1054A000CFFC0026AD49304608F061FC07F09EFBBA
:1054B00002B26620314608F00CFD2578A848007835
:1054C000022804D10020A6490870A6490870A64801
:1054D0000378591CC9B28D423A4603D26B1E0AD2D8
:1054E000002308E0191DC9B28D4204D9291FCBB28F
:1054F0000A2B00D30A2351B201910370059504923F
:1055000003939A49F0B2062830D2F018C4B2374655
:105510000E462D1B6B426B41401CC2B2F80010308E
:10552000C1B21220069108F0CCFA2D20305C8442E2
:1055300004D101202A22069908F0B2FC0F2220464D
:10554000934C214605F004FD68426841854909787D
:105550000140103100911820069922460F2308F0CF
:10556000E8F97E1C049A059D039BCAE77A480078F7
:105570000028174607D02D24095D7648007881421F
:105580001BD07E261AE0029A1046643802286DD39A
:10559000602A7AD0BF2A00D197E06E2A75D0812A7E
:1055A00000D19FE0612A00D0B0E06E490878012860
:1055B00000D0C7E000200870C4E0592608F05AFC6B
:1055C000002801D16920C6434F206849085C400784
:1055D00001D43F200640F1B265480A2202F0DCFE09
:1055E000012800D092E05C488678052E5BD8B00098
:1055F00001A108588746C0466356000011560000B6
:10560000115600009D560000A7560000B15600003C
:1056100050480578554805555848012404700298AB
:1056200007F066FB07F0F8F8284600F03FFF544803
:10563000C17802220A43C270012006F0E5FE07F09D
:10564000EBF806F09DF803F0C3F94E48807A08F0B5
:10565000FDFB07F01DF940480078022801D0022E1A
:1056600072D1494807F012FA059D4FE02D20085CE1
:1056700038490978884239D11046642A01D0652812
:1056800044D1414807F002FA40E040480024047049
:1056900034490878012832D10C7053E03548059D13
:1056A000057001200BE001202E490870059D31E0B6
:1056B000029807F01DFB2F48059D05700020284922
:1056C00008702D4806F08AFD20E00020224A107064
:1056D000244A10702D20085C1E490870012002F039
:1056E00089F913E0012006F049FF0FE002201A4C6F
:1056F0002070104607F0FCFA0020607006E00120E0
:10570000154E3070104607F0F3FA747015480078A3
:10571000012817D10198A84214D0781CC0B2691C86
:10572000C9B206F097FA2D20104A115C8D4201D1C2
:10573000175404E0019A8A4204D10C490D54012007
:1057400006F062FE07B0F0BD012006F017FF8BE700
:10575000B7F80000450F0020070F0020C1F9000036
:105760007E0F0020460F0020190F0020B40D0020EE
:10577000D5F000007D0F0020E59A0000720F002098
:105780009C0F00204A080020110400001F0F002079
:04579000C606002029
:10579400F0B589B0B5498879401C88710020012191
:1057A4000491B44AC5B2012D00D9E5E0002D03D01F
:1057B400B448B549401802E0B148B2490818002776
:1057C400C057290156180028049B1BD016280CDB4F
:1057D400153840B208F052FBB1798142049B11D0D4
:1057E400B11D0870002805D10CE008F047FB002823
:1057F400049B07D0002D02D008F05AFB01E007F00B
:1058040073FB3B4605206843994908180690847841
:10581400FE202040022801D19C4887889C480078BB
:10582400002800D09B4F032006990856042C04D36B
:1058340062009949511808390F880122002C0593F8
:10584400029003922ED0162823DBF078318801438E
:10585400864A9079084391880143B0780843B11C83
:10586400002800D108700298153840B2019108F060
:1058740005FB019A002808D01178002905D1F11CF4
:105884000A7853425341019A0B701070059B039A96
:1058940008E0002805D008F0F1FA039A059BF0709F
:1058A40000E0F2703088F178002901D1014607E068
:1058B40091023AB251188A0E89188911C9B2411855
:1058C4006A4F002B00D10146318007F003FCB988F0
:1058D400401A80B264284DD3BA79318807A808F0F9
:1058E4003BF80798019008993180002D04D00021DD
:1058F400B971391D642004E03988491C3980B91C08
:105904000398059B0A8812180A800198010602D0A0
:105914003089401C3081002B06D0F01C0078002810
:1059240002D0B088401CB080069A107852781202D7
:105934001018B0817289490E5218728131460C31A7
:10594400002C034610D0012C04D1029A002A08D05E
:10595400B28807E0022C01D8328903E092B212091E
:1059640000E07A88831A0B80069A1279002A01D003
:10597400C01A0880681C14E79589D089A8426FD0A2
:105984003B4B187859781B79D581D278002A67D097
:1059940009020818421B002B294600D011460FB2F9
:1059A4003E4C2178490728D5002826D00A2F1646D0
:1059B4001C4607D0B8B2142807D01E2808D11920D5
:1059C40029210BE01B202B2108E01A202A2105E0C5
:1059D400052F47DC002F05D4F9B21C2007F024F969
:1059E400234632462D4C0498002806D020780821FE
:1059F400014002D0204832210180002F01D51D48EA
:105A04008289002B00D0154629B207A83C2207F052
:105A1400A3FF2078800715D50898002812D1607A52
:105A2400800703D4002007F055FA05E00798002802
:105A340002D000B208F0A0F82078000702D50E4882
:105A4400322101800B4880890C49884208D31C20EC
:105A540007F040FA2078000702D507483221018078
:105A640009B0F0BD00200490BCE7C046280800201F
:105A7400E00E00205407002038080020F6FF000044
:105A8400710300004A08002072030000FC07002094
:105A9400690F002000FCFFFF74070020FA0D0020AE
:105AA400F0B587B0044640782378834200D059E1AA
:105AB400222900D956E1B04800788006400F4900F9
